{
  "contractName": "ProductLot",
  "abi": [
    {
      "inputs": [
        {
          "internalType": "address",
          "name": "initialOwner",
          "type": "address"
        }
      ],
      "stateMutability": "nonpayable",
      "type": "constructor"
    },
    {
      "inputs": [
        {
          "internalType": "address",
          "name": "owner",
          "type": "address"
        }
      ],
      "name": "OwnableInvalidOwner",
      "type": "error"
    },
    {
      "inputs": [
        {
          "internalType": "address",
          "name": "account",
          "type": "address"
        }
      ],
      "name": "OwnableUnauthorizedAccount",
      "type": "error"
    },
    {
      "anonymous": false,
      "inputs": [
        {
          "indexed": true,
          "internalType": "address",
          "name": "previousOwner",
          "type": "address"
        },
        {
          "indexed": true,
          "internalType": "address",
          "name": "newOwner",
          "type": "address"
        }
      ],
      "name": "OwnershipTransferred",
      "type": "event"
    },
    {
      "anonymous": false,
      "inputs": [
        {
          "indexed": false,
          "internalType": "string",
          "name": "productLotID",
          "type": "string"
        },
        {
          "indexed": false,
          "internalType": "string",
          "name": "productID",
          "type": "string"
        },
        {
          "indexed": false,
          "internalType": "string",
          "name": "qrCode",
          "type": "string"
        },
        {
          "indexed": false,
          "internalType": "uint256",
          "name": "quantityBox",
          "type": "uint256"
        },
        {
          "indexed": false,
          "internalType": "uint256",
          "name": "mfgDate",
          "type": "uint256"
        },
        {
          "indexed": false,
          "internalType": "uint256",
          "name": "expDate",
          "type": "uint256"
        },
        {
          "indexed": false,
          "internalType": "bool",
          "name": "status",
          "type": "bool"
        },
        {
          "indexed": false,
          "internalType": "uint256",
          "name": "createdOn",
          "type": "uint256"
        },
        {
          "indexed": false,
          "internalType": "string[]",
          "name": "rawMilkIDs",
          "type": "string[]"
        }
      ],
      "name": "ProductLotCreated",
      "type": "event"
    },
    {
      "inputs": [],
      "name": "owner",
      "outputs": [
        {
          "internalType": "address",
          "name": "",
          "type": "address"
        }
      ],
      "stateMutability": "view",
      "type": "function"
    },
    {
      "inputs": [
        {
          "internalType": "string",
          "name": "",
          "type": "string"
        }
      ],
      "name": "productLots",
      "outputs": [
        {
          "internalType": "string",
          "name": "productLotID",
          "type": "string"
        },
        {
          "internalType": "string",
          "name": "productID",
          "type": "string"
        },
        {
          "internalType": "string",
          "name": "qrCode",
          "type": "string"
        },
        {
          "internalType": "uint256",
          "name": "quantityBox",
          "type": "uint256"
        },
        {
          "internalType": "uint256",
          "name": "mfgDate",
          "type": "uint256"
        },
        {
          "internalType": "uint256",
          "name": "expDate",
          "type": "uint256"
        },
        {
          "internalType": "bool",
          "name": "status",
          "type": "bool"
        },
        {
          "internalType": "uint256",
          "name": "createdOn",
          "type": "uint256"
        }
      ],
      "stateMutability": "view",
      "type": "function"
    },
    {
      "inputs": [],
      "name": "renounceOwnership",
      "outputs": [],
      "stateMutability": "nonpayable",
      "type": "function"
    },
    {
      "inputs": [
        {
          "internalType": "address",
          "name": "newOwner",
          "type": "address"
        }
      ],
      "name": "transferOwnership",
      "outputs": [],
      "stateMutability": "nonpayable",
      "type": "function"
    },
    {
      "inputs": [
        {
          "internalType": "string",
          "name": "_productLotID",
          "type": "string"
        },
        {
          "internalType": "string",
          "name": "_productID",
          "type": "string"
        },
        {
          "internalType": "string",
          "name": "_qrCode",
          "type": "string"
        },
        {
          "internalType": "uint256",
          "name": "_quantityBox",
          "type": "uint256"
        },
        {
          "internalType": "uint256",
          "name": "_mfgDate",
          "type": "uint256"
        },
        {
          "internalType": "uint256",
          "name": "_expDate",
          "type": "uint256"
        },
        {
          "internalType": "string[]",
          "name": "_rawMilkIDs",
          "type": "string[]"
        }
      ],
      "name": "addProductLot",
      "outputs": [],
      "stateMutability": "nonpayable",
      "type": "function"
    }
  ],
  "bytecode": "0x608060405234801561000f575f80fd5b50604051610c72380380610c7283398101604081905261002e916100bb565b806001600160a01b03811661005c57604051631e4fbdf760e01b81525f600482015260240160405180910390fd5b6100658161006c565b50506100e8565b5f80546001600160a01b038381166001600160a01b0319831681178455604051919092169283917f8be0079c531659141344cd1fd0a4f28419497f9722a3daafe3b4186f6b6457e09190a35050565b5f602082840312156100cb575f80fd5b81516001600160a01b03811681146100e1575f80fd5b9392505050565b610b7d806100f55f395ff3fe608060405234801561000f575f80fd5b5060043610610055575f3560e01c8063715018a614610059578063725e510a146100635780638da5cb5b14610076578063b00421f114610095578063f2fde38b146100bc575b5f80fd5b6100616100cf565b005b610061610071366004610747565b6100e2565b5f546040516001600160a01b0390911681526020015b60405180910390f35b6100a86100a3366004610808565b6102ab565b60405161008c98979695949392919061088f565b6100616100ca3660046108f8565b61048d565b6100d76104ca565b6100e05f6104f6565b565b6100ea6104ca565b6001876040516100fa9190610925565b9081526020016040518091039020600701545f1461015f5760405162461bcd60e51b815260206004820152601a60248201527f50726f64756374204c6f7420616c72656164792065786973747300000000000060448201526064015b60405180910390fd5b604051806101200160405280888152602001878152602001868152602001858152602001848152602001838152602001600115158152602001428152602001828152506001886040516101b29190610925565b908152604051908190036020019020815181906101cf90826109c6565b50602082015160018201906101e490826109c6565b50604082015160028201906101f990826109c6565b50606082015160038201556080820151600482015560a0820151600582015560c082015160068201805460ff191691151591909117905560e082015160078201556101008201518051610256916008840191602090910190610545565b509050507ff008a05109c759da65770094a15946385ef5a0d872672a967e84c38ca015e9348787878787876001428960405161029a99989796959493929190610a82565b60405180910390a150505050505050565b80516020818301810180516001825292820191909301209152805481906102d190610940565b80601f01602080910402602001604051908101604052809291908181526020018280546102fd90610940565b80156103485780601f1061031f57610100808354040283529160200191610348565b820191905f5260205f20905b81548152906001019060200180831161032b57829003601f168201915b50505050509080600101805461035d90610940565b80601f016020809104026020016040519081016040528092919081815260200182805461038990610940565b80156103d45780601f106103ab576101008083540402835291602001916103d4565b820191905f5260205f20905b8154815290600101906020018083116103b757829003601f168201915b5050505050908060020180546103e990610940565b80601f016020809104026020016040519081016040528092919081815260200182805461041590610940565b80156104605780601f1061043757610100808354040283529160200191610460565b820191905f5260205f20905b81548152906001019060200180831161044357829003601f168201915b505050506003830154600484015460058501546006860154600790960154949592949193509160ff169088565b6104956104ca565b6001600160a01b0381166104be57604051631e4fbdf760e01b81525f6004820152602401610156565b6104c7816104f6565b50565b5f546001600160a01b031633146100e05760405163118cdaa760e01b8152336004820152602401610156565b5f80546001600160a01b038381166001600160a01b0319831681178455604051919092169283917f8be0079c531659141344cd1fd0a4f28419497f9722a3daafe3b4186f6b6457e09190a35050565b828054828255905f5260205f20908101928215610589579160200282015b82811115610589578251829061057990826109c6565b5091602001919060010190610563565b50610595929150610599565b5090565b80821115610595575f6105ac82826105b5565b50600101610599565b5080546105c190610940565b5f825580601f106105d0575050565b601f0160209004905f5260205f20908101906104c791905b80821115610595575f81556001016105e8565b634e487b7160e01b5f52604160045260245ffd5b604051601f8201601f1916810167ffffffffffffffff81118282101715610638576106386105fb565b604052919050565b5f82601f83011261064f575f80fd5b813567ffffffffffffffff811115610669576106696105fb565b61067c601f8201601f191660200161060f565b818152846020838601011115610690575f80fd5b816020850160208301375f918101602001919091529392505050565b5f82601f8301126106bb575f80fd5b8135602067ffffffffffffffff808311156106d8576106d86105fb565b8260051b6106e783820161060f565b9384528581018301938381019088861115610700575f80fd5b84880192505b8583101561073b5782358481111561071d575f8081fd5b61072b8a87838c0101610640565b8352509184019190840190610706565b98975050505050505050565b5f805f805f805f60e0888a03121561075d575f80fd5b873567ffffffffffffffff80821115610774575f80fd5b6107808b838c01610640565b985060208a0135915080821115610795575f80fd5b6107a18b838c01610640565b975060408a01359150808211156107b6575f80fd5b6107c28b838c01610640565b965060608a0135955060808a0135945060a08a0135935060c08a01359150808211156107ec575f80fd5b506107f98a828b016106ac565b91505092959891949750929550565b5f60208284031215610818575f80fd5b813567ffffffffffffffff81111561082e575f80fd5b61083a84828501610640565b949350505050565b5f5b8381101561085c578181015183820152602001610844565b50505f910152565b5f815180845261087b816020860160208601610842565b601f01601f19169290920160200192915050565b5f6101008083526108a28184018c610864565b905082810360208401526108b6818b610864565b905082810360408401526108ca818a610864565b60608401989098525050608081019490945260a0840192909252151560c083015260e0909101529392505050565b5f60208284031215610908575f80fd5b81356001600160a01b038116811461091e575f80fd5b9392505050565b5f8251610936818460208701610842565b9190910192915050565b600181811c9082168061095457607f821691505b60208210810361097257634e487b7160e01b5f52602260045260245ffd5b50919050565b601f8211156109c1575f81815260208120601f850160051c8101602086101561099e5750805b601f850160051c820191505b818110156109bd578281556001016109aa565b5050505b505050565b815167ffffffffffffffff8111156109e0576109e06105fb565b6109f4816109ee8454610940565b84610978565b602080601f831160018114610a27575f8415610a105750858301515b5f19600386901b1c1916600185901b1785556109bd565b5f85815260208120601f198616915b82811015610a5557888601518255948401946001909101908401610a36565b5085821015610a7257878501515f19600388901b60f8161c191681555b5050505050600190811b01905550565b5f610120808352610a958184018d610864565b9050602083820381850152610aaa828d610864565b91508382036040850152610abe828c610864565b91508960608501528860808501528760a085015286151560c08501528560e08501528382036101008501528185518084528284019150828160051b8501018388015f5b83811015610b2f57601f19878403018552610b1d838351610864565b94860194925090850190600101610b01565b505080955050505050509a995050505050505050505056fea264697066735822122009ec31f851a15643dfe54b03b70e8528fe23d964c558bbf02c183a087845ca6664736f6c63430008140033",
  "immutableReferences": {},
  "source": "// SPDX-License-Identifier: MIT\npragma solidity ^0.8.20;\n\nimport \"@openzeppelin/contracts/access/Ownable.sol\";\n\ncontract ProductLot is Ownable {\n    constructor(address initialOwner) Ownable(initialOwner) {}\n    struct LotInfo {\n        string productLotID;\n        string productID;\n        string qrCode;\n        uint256 quantityBox;\n        uint256 mfgDate;\n        uint256 expDate;\n        bool status;\n        uint256 createdOn;\n        string[] rawMilkIDs; // \n    }\n\n    mapping(string => LotInfo) public productLots;\n    event ProductLotCreated(\n        string productLotID,\n        string productID,\n        string qrCode,\n        uint256 quantityBox,\n        uint256 mfgDate,\n        uint256 expDate,\n        bool status,\n        uint256 createdOn,\n        string[] rawMilkIDs\n    );\n\n    function addProductLot(\n        string memory _productLotID,\n        string memory _productID,\n        string memory _qrCode,\n        uint256 _quantityBox,\n        uint256 _mfgDate,\n        uint256 _expDate,\n        string[] memory _rawMilkIDs\n    ) public onlyOwner {\n        require(productLots[_productLotID].createdOn == 0, \"Product Lot already exists\");\n\n        productLots[_productLotID] = LotInfo({\n            productLotID: _productLotID,\n            productID: _productID,\n            qrCode: _qrCode,\n            quantityBox: _quantityBox,\n            mfgDate: _mfgDate,\n            expDate: _expDate,\n            status: true,\n            createdOn: block.timestamp,\n            rawMilkIDs: _rawMilkIDs\n        });\n\n        emit ProductLotCreated(_productLotID, _productID, _qrCode, _quantityBox, _mfgDate, _expDate, true, block.timestamp, _rawMilkIDs);\n    }\n}\n",
  "sourcePath": "/home/apiwat/finalyearproject/Backend/solidity/contracts/ProductLot.sol",
  "compiler": {
    "name": "solc",
    "version": "0.8.20+commit.a1b79de6.Emscripten.clang"
  },
  "schemaVersion": "3.4.16",
  "updatedAt": "2025-02-10T11:14:16.113Z",
  "devdoc": {
    "errors": {
      "OwnableInvalidOwner(address)": [
        {
          "details": "The owner is not a valid owner account. (eg. `address(0)`)"
        }
      ],
      "OwnableUnauthorizedAccount(address)": [
        {
          "details": "The caller account is not authorized to perform an operation."
        }
      ]
    },
    "kind": "dev",
    "methods": {
      "owner()": {
        "details": "Returns the address of the current owner."
      },
      "renounceOwnership()": {
        "details": "Leaves the contract without owner. It will not be possible to call `onlyOwner` functions. Can only be called by the current owner. NOTE: Renouncing ownership will leave the contract without an owner, thereby disabling any functionality that is only available to the owner."
      },
      "transferOwnership(address)": {
        "details": "Transfers ownership of the contract to a new account (`newOwner`). Can only be called by the current owner."
      }
    },
    "version": 1
  },
  "userdoc": {
    "kind": "user",
    "methods": {},
    "version": 1
  }
}