{
  "contractName": "Product",
  "abi": [
    {
      "inputs": [
        {
          "internalType": "address",
          "name": "initialOwner",
          "type": "address"
        }
      ],
      "stateMutability": "nonpayable",
      "type": "constructor"
    },
    {
      "inputs": [
        {
          "internalType": "address",
          "name": "owner",
          "type": "address"
        }
      ],
      "name": "OwnableInvalidOwner",
      "type": "error"
    },
    {
      "inputs": [
        {
          "internalType": "address",
          "name": "account",
          "type": "address"
        }
      ],
      "name": "OwnableUnauthorizedAccount",
      "type": "error"
    },
    {
      "anonymous": false,
      "inputs": [
        {
          "indexed": true,
          "internalType": "address",
          "name": "previousOwner",
          "type": "address"
        },
        {
          "indexed": true,
          "internalType": "address",
          "name": "newOwner",
          "type": "address"
        }
      ],
      "name": "OwnershipTransferred",
      "type": "event"
    },
    {
      "anonymous": false,
      "inputs": [
        {
          "indexed": false,
          "internalType": "string",
          "name": "productID",
          "type": "string"
        },
        {
          "indexed": false,
          "internalType": "string",
          "name": "factoryID",
          "type": "string"
        },
        {
          "indexed": false,
          "internalType": "string",
          "name": "productName",
          "type": "string"
        },
        {
          "indexed": false,
          "internalType": "string",
          "name": "nutritionalInfoCID",
          "type": "string"
        },
        {
          "indexed": false,
          "internalType": "uint256",
          "name": "createdOn",
          "type": "uint256"
        }
      ],
      "name": "ProductCreated",
      "type": "event"
    },
    {
      "inputs": [],
      "name": "owner",
      "outputs": [
        {
          "internalType": "address",
          "name": "",
          "type": "address"
        }
      ],
      "stateMutability": "view",
      "type": "function"
    },
    {
      "inputs": [
        {
          "internalType": "string",
          "name": "",
          "type": "string"
        }
      ],
      "name": "products",
      "outputs": [
        {
          "internalType": "string",
          "name": "productID",
          "type": "string"
        },
        {
          "internalType": "string",
          "name": "factoryID",
          "type": "string"
        },
        {
          "internalType": "string",
          "name": "productName",
          "type": "string"
        },
        {
          "internalType": "string",
          "name": "nutritionalInfoCID",
          "type": "string"
        },
        {
          "internalType": "uint256",
          "name": "createdOn",
          "type": "uint256"
        }
      ],
      "stateMutability": "view",
      "type": "function"
    },
    {
      "inputs": [],
      "name": "renounceOwnership",
      "outputs": [],
      "stateMutability": "nonpayable",
      "type": "function"
    },
    {
      "inputs": [
        {
          "internalType": "address",
          "name": "newOwner",
          "type": "address"
        }
      ],
      "name": "transferOwnership",
      "outputs": [],
      "stateMutability": "nonpayable",
      "type": "function"
    },
    {
      "inputs": [
        {
          "internalType": "string",
          "name": "_productID",
          "type": "string"
        },
        {
          "internalType": "string",
          "name": "_factoryID",
          "type": "string"
        },
        {
          "internalType": "string",
          "name": "_productName",
          "type": "string"
        },
        {
          "internalType": "string",
          "name": "_nutritionalInfoCID",
          "type": "string"
        }
      ],
      "name": "addProduct",
      "outputs": [],
      "stateMutability": "nonpayable",
      "type": "function"
    },
    {
      "inputs": [
        {
          "internalType": "string",
          "name": "_productID",
          "type": "string"
        }
      ],
      "name": "getProduct",
      "outputs": [
        {
          "internalType": "string",
          "name": "",
          "type": "string"
        },
        {
          "internalType": "string",
          "name": "",
          "type": "string"
        },
        {
          "internalType": "string",
          "name": "",
          "type": "string"
        },
        {
          "internalType": "string",
          "name": "",
          "type": "string"
        },
        {
          "internalType": "uint256",
          "name": "",
          "type": "uint256"
        }
      ],
      "stateMutability": "view",
      "type": "function"
    }
  ],
  "bytecode": "0x608060405234801561000f575f80fd5b50604051610d51380380610d5183398101604081905261002e916100bb565b806001600160a01b03811661005c57604051631e4fbdf760e01b81525f600482015260240160405180910390fd5b6100658161006c565b50506100e8565b5f80546001600160a01b038381166001600160a01b0319831681178455604051919092169283917f8be0079c531659141344cd1fd0a4f28419497f9722a3daafe3b4186f6b6457e09190a35050565b5f602082840312156100cb575f80fd5b81516001600160a01b03811681146100e1575f80fd5b9392505050565b610c5c806100f55f395ff3fe608060405234801561000f575f80fd5b5060043610610060575f3560e01c80630186a4231461006457806368111cce14610091578063715018a6146100a45780638da5cb5b146100ae578063f2fde38b146100c8578063fde74e81146100db575b5f80fd5b610077610072366004610910565b6100ee565b604051610088959493929190610997565b60405180910390f35b61007761009f366004610910565b61033f565b6100ac610651565b005b5f546040516001600160a01b039091168152602001610088565b6100ac6100d63660046109f6565b610664565b6100ac6100e9366004610a23565b6106a1565b805160208183018101805160018252928201919093012091528054819061011490610ac9565b80601f016020809104026020016040519081016040528092919081815260200182805461014090610ac9565b801561018b5780601f106101625761010080835404028352916020019161018b565b820191905f5260205f20905b81548152906001019060200180831161016e57829003601f168201915b5050505050908060010180546101a090610ac9565b80601f01602080910402602001604051908101604052809291908181526020018280546101cc90610ac9565b80156102175780601f106101ee57610100808354040283529160200191610217565b820191905f5260205f20905b8154815290600101906020018083116101fa57829003601f168201915b50505050509080600201805461022c90610ac9565b80601f016020809104026020016040519081016040528092919081815260200182805461025890610ac9565b80156102a35780601f1061027a576101008083540402835291602001916102a3565b820191905f5260205f20905b81548152906001019060200180831161028657829003601f168201915b5050505050908060030180546102b890610ac9565b80601f01602080910402602001604051908101604052809291908181526020018280546102e490610ac9565b801561032f5780601f106103065761010080835404028352916020019161032f565b820191905f5260205f20905b81548152906001019060200180831161031257829003601f168201915b5050505050908060040154905085565b6060806060805f6001866040516103569190610b01565b9081526020016040518091039020600401545f036103b45760405162461bcd60e51b8152602060048201526016602482015275141c9bd91d58dd08191bd95cc81b9bdd08195e1a5cdd60521b60448201526064015b60405180910390fd5b5f6001876040516103c59190610b01565b90815260200160405180910390206040518060a00160405290815f820180546103ed90610ac9565b80601f016020809104026020016040519081016040528092919081815260200182805461041990610ac9565b80156104645780601f1061043b57610100808354040283529160200191610464565b820191905f5260205f20905b81548152906001019060200180831161044757829003601f168201915b5050505050815260200160018201805461047d90610ac9565b80601f01602080910402602001604051908101604052809291908181526020018280546104a990610ac9565b80156104f45780601f106104cb576101008083540402835291602001916104f4565b820191905f5260205f20905b8154815290600101906020018083116104d757829003601f168201915b5050505050815260200160028201805461050d90610ac9565b80601f016020809104026020016040519081016040528092919081815260200182805461053990610ac9565b80156105845780601f1061055b57610100808354040283529160200191610584565b820191905f5260205f20905b81548152906001019060200180831161056757829003601f168201915b5050505050815260200160038201805461059d90610ac9565b80601f01602080910402602001604051908101604052809291908181526020018280546105c990610ac9565b80156106145780601f106105eb57610100808354040283529160200191610614565b820191905f5260205f20905b8154815290600101906020018083116105f757829003601f168201915b50505091835250506004919091015460209182015281519082015160408301516060840151608090940151929b919a509850919650945092505050565b6106596107f8565b6106625f610824565b565b61066c6107f8565b6001600160a01b03811661069557604051631e4fbdf760e01b81525f60048201526024016103ab565b61069e81610824565b50565b6106a96107f8565b6001846040516106b99190610b01565b9081526020016040518091039020600401545f146107125760405162461bcd60e51b815260206004820152601660248201527550726f6475637420616c72656164792065786973747360501b60448201526064016103ab565b6040518060a00160405280858152602001848152602001838152602001828152602001428152506001856040516107499190610b01565b908152604051908190036020019020815181906107669082610b6a565b506020820151600182019061077b9082610b6a565b50604082015160028201906107909082610b6a565b50606082015160038201906107a59082610b6a565b50608082015181600401559050507fb501c1bec9417ee06c99fde2ddf6591c2b25d23613fc3506126b30c9fa5137d384848484426040516107ea959493929190610997565b60405180910390a150505050565b5f546001600160a01b031633146106625760405163118cdaa760e01b81523360048201526024016103ab565b5f80546001600160a01b038381166001600160a01b0319831681178455604051919092169283917f8be0079c531659141344cd1fd0a4f28419497f9722a3daafe3b4186f6b6457e09190a35050565b634e487b7160e01b5f52604160045260245ffd5b5f82601f830112610896575f80fd5b813567ffffffffffffffff808211156108b1576108b1610873565b604051601f8301601f19908116603f011681019082821181831017156108d9576108d9610873565b816040528381528660208588010111156108f1575f80fd5b836020870160208301375f602085830101528094505050505092915050565b5f60208284031215610920575f80fd5b813567ffffffffffffffff811115610936575f80fd5b61094284828501610887565b949350505050565b5f5b8381101561096457818101518382015260200161094c565b50505f910152565b5f815180845261098381602086016020860161094a565b601f01601f19169290920160200192915050565b60a081525f6109a960a083018861096c565b82810360208401526109bb818861096c565b905082810360408401526109cf818761096c565b905082810360608401526109e3818661096c565b9150508260808301529695505050505050565b5f60208284031215610a06575f80fd5b81356001600160a01b0381168114610a1c575f80fd5b9392505050565b5f805f8060808587031215610a36575f80fd5b843567ffffffffffffffff80821115610a4d575f80fd5b610a5988838901610887565b95506020870135915080821115610a6e575f80fd5b610a7a88838901610887565b94506040870135915080821115610a8f575f80fd5b610a9b88838901610887565b93506060870135915080821115610ab0575f80fd5b50610abd87828801610887565b91505092959194509250565b600181811c90821680610add57607f821691505b602082108103610afb57634e487b7160e01b5f52602260045260245ffd5b50919050565b5f8251610b1281846020870161094a565b9190910192915050565b601f821115610b65575f81815260208120601f850160051c81016020861015610b425750805b601f850160051c820191505b81811015610b6157828155600101610b4e565b5050505b505050565b815167ffffffffffffffff811115610b8457610b84610873565b610b9881610b928454610ac9565b84610b1c565b602080601f831160018114610bcb575f8415610bb45750858301515b5f19600386901b1c1916600185901b178555610b61565b5f85815260208120601f198616915b82811015610bf957888601518255948401946001909101908401610bda565b5085821015610c1657878501515f19600388901b60f8161c191681555b5050505050600190811b0190555056fea26469706673582212204f222dd25d9517498442335d4dc72a770886b03c5b8f62fb2cb03afeeb39513e64736f6c63430008140033",
  "immutableReferences": {},
  "source": "// SPDX-License-Identifier: MIT\npragma solidity ^0.8.20;\n\nimport \"@openzeppelin/contracts/access/Ownable.sol\";\n\ncontract Product is Ownable {\n    constructor(address initialOwner) Ownable(initialOwner) {}\n\n    struct ProductInfo {\n        string productID;\n        string factoryID;\n        string productName;\n        string nutritionalInfoCID;\n        uint256 createdOn;\n    }\n\n    mapping(string => ProductInfo) public products;\n    event ProductCreated(\n        string productID,\n        string factoryID,\n        string productName,\n        string nutritionalInfoCID,\n        uint256 createdOn\n    );\n\n    function addProduct(\n        string memory _productID,\n        string memory _factoryID,\n        string memory _productName,\n        string memory _nutritionalInfoCID\n    ) public onlyOwner {\n        require(products[_productID].createdOn == 0, \"Product already exists\");\n\n        products[_productID] = ProductInfo({\n            productID: _productID,\n            factoryID: _factoryID,\n            productName: _productName,\n            nutritionalInfoCID: _nutritionalInfoCID,\n            createdOn: block.timestamp\n        });\n\n        emit ProductCreated(_productID, _factoryID, _productName, _nutritionalInfoCID, block.timestamp);\n    }\n\n    function getProduct(string memory _productID) public view returns (\n        string memory, string memory, string memory, string memory, uint256\n    ) {\n        require(products[_productID].createdOn != 0, \"Product does not exist\");\n        ProductInfo memory product = products[_productID];\n        return (product.productID, product.factoryID, product.productName, product.nutritionalInfoCID, product.createdOn);\n    }\n}",
  "sourcePath": "/home/apiwat/finalyearproject/Backend/solidity/contracts/Product.sol",
  "compiler": {
    "name": "solc",
    "version": "0.8.20+commit.a1b79de6.Emscripten.clang"
  },
  "schemaVersion": "3.4.16",
  "updatedAt": "2025-02-10T11:14:16.111Z",
  "devdoc": {
    "errors": {
      "OwnableInvalidOwner(address)": [
        {
          "details": "The owner is not a valid owner account. (eg. `address(0)`)"
        }
      ],
      "OwnableUnauthorizedAccount(address)": [
        {
          "details": "The caller account is not authorized to perform an operation."
        }
      ]
    },
    "kind": "dev",
    "methods": {
      "owner()": {
        "details": "Returns the address of the current owner."
      },
      "renounceOwnership()": {
        "details": "Leaves the contract without owner. It will not be possible to call `onlyOwner` functions. Can only be called by the current owner. NOTE: Renouncing ownership will leave the contract without an owner, thereby disabling any functionality that is only available to the owner."
      },
      "transferOwnership(address)": {
        "details": "Transfers ownership of the contract to a new account (`newOwner`). Can only be called by the current owner."
      }
    },
    "version": 1
  },
  "userdoc": {
    "kind": "user",
    "methods": {},
    "version": 1
  }
}