{
  "contractName": "RawMilk",
  "abi": [
    {
      "inputs": [
        {
          "internalType": "address",
          "name": "initialOwner",
          "type": "address"
        }
      ],
      "stateMutability": "nonpayable",
      "type": "constructor"
    },
    {
      "inputs": [
        {
          "internalType": "address",
          "name": "owner",
          "type": "address"
        }
      ],
      "name": "OwnableInvalidOwner",
      "type": "error"
    },
    {
      "inputs": [
        {
          "internalType": "address",
          "name": "account",
          "type": "address"
        }
      ],
      "name": "OwnableUnauthorizedAccount",
      "type": "error"
    },
    {
      "anonymous": false,
      "inputs": [
        {
          "indexed": false,
          "internalType": "string",
          "name": "rawMilkID",
          "type": "string"
        },
        {
          "indexed": false,
          "internalType": "string",
          "name": "farmerID",
          "type": "string"
        },
        {
          "indexed": false,
          "internalType": "string",
          "name": "batchNumber",
          "type": "string"
        },
        {
          "indexed": false,
          "internalType": "uint256",
          "name": "quantity",
          "type": "uint256"
        },
        {
          "indexed": false,
          "internalType": "uint256",
          "name": "temperature",
          "type": "uint256"
        },
        {
          "indexed": false,
          "internalType": "uint256",
          "name": "timestamp",
          "type": "uint256"
        }
      ],
      "name": "MilkBatchCreated",
      "type": "event"
    },
    {
      "anonymous": false,
      "inputs": [
        {
          "indexed": false,
          "internalType": "string",
          "name": "rawMilkID",
          "type": "string"
        },
        {
          "indexed": false,
          "internalType": "string",
          "name": "transportedBy",
          "type": "string"
        },
        {
          "indexed": false,
          "internalType": "uint256",
          "name": "shippedTimestamp",
          "type": "uint256"
        }
      ],
      "name": "MilkBatchShipped",
      "type": "event"
    },
    {
      "anonymous": false,
      "inputs": [
        {
          "indexed": false,
          "internalType": "string",
          "name": "rawMilkID",
          "type": "string"
        },
        {
          "indexed": false,
          "internalType": "bool",
          "name": "status",
          "type": "bool"
        }
      ],
      "name": "MilkBatchStatusUpdated",
      "type": "event"
    },
    {
      "anonymous": false,
      "inputs": [
        {
          "indexed": false,
          "internalType": "string",
          "name": "rawMilkID",
          "type": "string"
        },
        {
          "indexed": false,
          "internalType": "uint256",
          "name": "fatContent",
          "type": "uint256"
        },
        {
          "indexed": false,
          "internalType": "uint256",
          "name": "proteinContent",
          "type": "uint256"
        },
        {
          "indexed": false,
          "internalType": "uint256",
          "name": "bacteriaLevel",
          "type": "uint256"
        }
      ],
      "name": "MilkQualityChecked",
      "type": "event"
    },
    {
      "anonymous": false,
      "inputs": [
        {
          "indexed": true,
          "internalType": "address",
          "name": "previousOwner",
          "type": "address"
        },
        {
          "indexed": true,
          "internalType": "address",
          "name": "newOwner",
          "type": "address"
        }
      ],
      "name": "OwnershipTransferred",
      "type": "event"
    },
    {
      "inputs": [
        {
          "internalType": "string",
          "name": "",
          "type": "string"
        }
      ],
      "name": "milkBatchHashes",
      "outputs": [
        {
          "internalType": "bytes32",
          "name": "",
          "type": "bytes32"
        }
      ],
      "stateMutability": "view",
      "type": "function"
    },
    {
      "inputs": [
        {
          "internalType": "string",
          "name": "",
          "type": "string"
        }
      ],
      "name": "milkBatches",
      "outputs": [
        {
          "internalType": "string",
          "name": "rawMilkID",
          "type": "string"
        },
        {
          "internalType": "string",
          "name": "farmerID",
          "type": "string"
        },
        {
          "internalType": "string",
          "name": "batchNumber",
          "type": "string"
        },
        {
          "internalType": "uint256",
          "name": "quantity",
          "type": "uint256"
        },
        {
          "internalType": "uint256",
          "name": "temperature",
          "type": "uint256"
        },
        {
          "internalType": "uint256",
          "name": "timestamp",
          "type": "uint256"
        },
        {
          "internalType": "bool",
          "name": "status",
          "type": "bool"
        }
      ],
      "stateMutability": "view",
      "type": "function"
    },
    {
      "inputs": [
        {
          "internalType": "string",
          "name": "",
          "type": "string"
        }
      ],
      "name": "milkQualityData",
      "outputs": [
        {
          "internalType": "uint256",
          "name": "fatContent",
          "type": "uint256"
        },
        {
          "internalType": "uint256",
          "name": "proteinContent",
          "type": "uint256"
        },
        {
          "internalType": "uint256",
          "name": "bacteriaLevel",
          "type": "uint256"
        }
      ],
      "stateMutability": "view",
      "type": "function"
    },
    {
      "inputs": [],
      "name": "owner",
      "outputs": [
        {
          "internalType": "address",
          "name": "",
          "type": "address"
        }
      ],
      "stateMutability": "view",
      "type": "function"
    },
    {
      "inputs": [],
      "name": "renounceOwnership",
      "outputs": [],
      "stateMutability": "nonpayable",
      "type": "function"
    },
    {
      "inputs": [
        {
          "internalType": "address",
          "name": "newOwner",
          "type": "address"
        }
      ],
      "name": "transferOwnership",
      "outputs": [],
      "stateMutability": "nonpayable",
      "type": "function"
    },
    {
      "inputs": [
        {
          "internalType": "string",
          "name": "_rawMilkID",
          "type": "string"
        },
        {
          "internalType": "string",
          "name": "_farmerID",
          "type": "string"
        },
        {
          "internalType": "string",
          "name": "_batchNumber",
          "type": "string"
        },
        {
          "internalType": "uint256",
          "name": "_quantity",
          "type": "uint256"
        },
        {
          "internalType": "uint256",
          "name": "_temperature",
          "type": "uint256"
        }
      ],
      "name": "addMilkBatch",
      "outputs": [],
      "stateMutability": "nonpayable",
      "type": "function"
    },
    {
      "inputs": [
        {
          "internalType": "string",
          "name": "_rawMilkID",
          "type": "string"
        },
        {
          "internalType": "string",
          "name": "_farmerID",
          "type": "string"
        },
        {
          "internalType": "string",
          "name": "_batchNumber",
          "type": "string"
        },
        {
          "internalType": "uint256",
          "name": "_quantity",
          "type": "uint256"
        },
        {
          "internalType": "uint256",
          "name": "_temperature",
          "type": "uint256"
        }
      ],
      "name": "generateMilkBatchHash",
      "outputs": [
        {
          "internalType": "bytes32",
          "name": "",
          "type": "bytes32"
        }
      ],
      "stateMutability": "pure",
      "type": "function"
    }
  ],
  "bytecode": "0x608060405234801561000f575f80fd5b50604051610c0a380380610c0a83398101604081905261002e91610112565b806001600160a01b03811661005d57604051631e4fbdf760e01b81525f60048201526024015b60405180910390fd5b610066816100c3565b506001600160a01b0381166100bd5760405162461bcd60e51b815260206004820152601560248201527f496e76616c6964206f776e6572206164647265737300000000000000000000006044820152606401610054565b5061013f565b5f80546001600160a01b038381166001600160a01b0319831681178455604051919092169283917f8be0079c531659141344cd1fd0a4f28419497f9722a3daafe3b4186f6b6457e09190a35050565b5f60208284031215610122575f80fd5b81516001600160a01b0381168114610138575f80fd5b9392505050565b610abe8061014c5f395ff3fe608060405234801561000f575f80fd5b5060043610610085575f3560e01c8063908b1a7911610058578063908b1a79146100ef578063c943550d14610110578063e37ddf5d1461013b578063f2fde38b14610194575f80fd5b80635794e7b014610089578063715018a6146100b85780637692f9b6146100c25780638da5cb5b146100d5575b5f80fd5b61009c6100973660046106df565b6101a7565b6040516100af9796959493929190610766565b60405180910390f35b6100c0610382565b005b6100c06100d03660046107c7565b610395565b5f546040516001600160a01b0390911681526020016100af565b6101026100fd3660046107c7565b61054f565b6040519081526020016100af565b61010261011e3660046106df565b805160208183018101805160038252928201919093012091525481565b6101796101493660046106df565b80516020818301810180516002808352938301929094019190912092905281546001830154929091015490919083565b604080519384526020840192909252908201526060016100af565b6100c06101a236600461085a565b61058a565b80516020818301810180516001825292820191909301209152805481906101cd90610887565b80601f01602080910402602001604051908101604052809291908181526020018280546101f990610887565b80156102445780601f1061021b57610100808354040283529160200191610244565b820191905f5260205f20905b81548152906001019060200180831161022757829003601f168201915b50505050509080600101805461025990610887565b80601f016020809104026020016040519081016040528092919081815260200182805461028590610887565b80156102d05780601f106102a7576101008083540402835291602001916102d0565b820191905f5260205f20905b8154815290600101906020018083116102b357829003601f168201915b5050505050908060020180546102e590610887565b80601f016020809104026020016040519081016040528092919081815260200182805461031190610887565b801561035c5780601f106103335761010080835404028352916020019161035c565b820191905f5260205f20905b81548152906001019060200180831161033f57829003601f168201915b505050506003830154600484015460058501546006909501549394919390925060ff1687565b61038a6105c7565b6103935f6105f3565b565b61039d6105c7565b6001856040516103ad91906108bf565b9081526020016040518091039020600501545f146104125760405162461bcd60e51b815260206004820152601960248201527f4d696c6b20626174636820616c7265616479206578697374730000000000000060448201526064015b60405180910390fd5b6040518060e001604052808681526020018581526020018481526020018381526020018281526020014281526020016001151581525060018660405161045891906108bf565b908152604051908190036020019020815181906104759082610928565b506020820151600182019061048a9082610928565b506040820151600282019061049f9082610928565b50606082015160038201556080820151600482015560a0820151600582015560c0909101516006909101805460ff19169115159190911790556104e5858585858561054f565b6003866040516104f591906108bf565b9081526020016040518091039020819055507fd73973d3f9eec810f662ba4ddcd1baf53e7064f3e845433ee9aca699b2d78036858585858542604051610540969594939291906109e4565b60405180910390a15050505050565b5f8585858585604051602001610569959493929190610a3b565b60405160208183030381529060405280519060200120905095945050505050565b6105926105c7565b6001600160a01b0381166105bb57604051631e4fbdf760e01b81525f6004820152602401610409565b6105c4816105f3565b50565b5f546001600160a01b031633146103935760405163118cdaa760e01b8152336004820152602401610409565b5f80546001600160a01b038381166001600160a01b0319831681178455604051919092169283917f8be0079c531659141344cd1fd0a4f28419497f9722a3daafe3b4186f6b6457e09190a35050565b634e487b7160e01b5f52604160045260245ffd5b5f82601f830112610665575f80fd5b813567ffffffffffffffff8082111561068057610680610642565b604051601f8301601f19908116603f011681019082821181831017156106a8576106a8610642565b816040528381528660208588010111156106c0575f80fd5b836020870160208301375f602085830101528094505050505092915050565b5f602082840312156106ef575f80fd5b813567ffffffffffffffff811115610705575f80fd5b61071184828501610656565b949350505050565b5f5b8381101561073357818101518382015260200161071b565b50505f910152565b5f8151808452610752816020860160208601610719565b601f01601f19169290920160200192915050565b60e081525f61077860e083018a61073b565b828103602084015261078a818a61073b565b9050828103604084015261079e818961073b565b9150508560608301528460808301528360a083015282151560c083015298975050505050505050565b5f805f805f60a086880312156107db575f80fd5b853567ffffffffffffffff808211156107f2575f80fd5b6107fe89838a01610656565b96506020880135915080821115610813575f80fd5b61081f89838a01610656565b95506040880135915080821115610834575f80fd5b5061084188828901610656565b9598949750949560608101359550608001359392505050565b5f6020828403121561086a575f80fd5b81356001600160a01b0381168114610880575f80fd5b9392505050565b600181811c9082168061089b57607f821691505b6020821081036108b957634e487b7160e01b5f52602260045260245ffd5b50919050565b5f82516108d0818460208701610719565b9190910192915050565b601f821115610923575f81815260208120601f850160051c810160208610156109005750805b601f850160051c820191505b8181101561091f5782815560010161090c565b5050505b505050565b815167ffffffffffffffff81111561094257610942610642565b610956816109508454610887565b846108da565b602080601f831160018114610989575f84156109725750858301515b5f19600386901b1c1916600185901b17855561091f565b5f85815260208120601f198616915b828110156109b757888601518255948401946001909101908401610998565b50858210156109d457878501515f19600388901b60f8161c191681555b5050505050600190811b01905550565b60c081525f6109f660c083018961073b565b8281036020840152610a08818961073b565b90508281036040840152610a1c818861073b565b60608401969096525050608081019290925260a0909101529392505050565b5f8651610a4c818460208b01610719565b865190830190610a60818360208b01610719565b8651910190610a73818360208a01610719565b0193845250506020820152604001939250505056fea26469706673582212208f1d625efe7081439d73feffc136e14e973603668f8080a966714d4a926f7d1264736f6c63430008140033",
  "immutableReferences": {},
  "source": "// SPDX-License-Identifier: MIT\npragma solidity ^0.8.20;\n\nimport \"@openzeppelin/contracts/access/Ownable.sol\";\n\ncontract RawMilk is Ownable {\n    constructor(address initialOwner) Ownable(initialOwner) {\n        require(initialOwner != address(0), \"Invalid owner address\");\n    }  //   Address  0x0\n\n    struct MilkBatch {\n        string rawMilkID;\n        string farmerID;\n        string batchNumber;\n        uint256 quantity;\n        uint256 temperature;\n        uint256 timestamp;\n        bool status;\n    }\n\n    struct QualityCheck {\n        uint256 fatContent;\n        uint256 proteinContent;\n        uint256 bacteriaLevel;\n    }\n\n    mapping(string => MilkBatch) public milkBatches;\n    mapping(string => QualityCheck) public milkQualityData;\n    mapping(string => bytes32) public milkBatchHashes;\n\n    event MilkBatchCreated(\n        string rawMilkID,\n        string farmerID,\n        string batchNumber,\n        uint256 quantity,\n        uint256 temperature,\n        uint256 timestamp\n    );\n\n    event MilkBatchStatusUpdated(string rawMilkID, bool status);\n    event MilkBatchShipped(string rawMilkID, string transportedBy, uint256 shippedTimestamp);\n    event MilkQualityChecked(string rawMilkID, uint256 fatContent, uint256 proteinContent, uint256 bacteriaLevel);\n\n    function addMilkBatch(\n        string memory _rawMilkID,\n        string memory _farmerID,\n        string memory _batchNumber,\n        uint256 _quantity,\n        uint256 _temperature\n    ) public onlyOwner {\n        require(milkBatches[_rawMilkID].timestamp == 0, \"Milk batch already exists\");\n\n        milkBatches[_rawMilkID] = MilkBatch({\n            rawMilkID: _rawMilkID,\n            farmerID: _farmerID,\n            batchNumber: _batchNumber,\n            quantity: _quantity,\n            temperature: _temperature,\n            timestamp: block.timestamp,\n            status: true\n        });\n\n        milkBatchHashes[_rawMilkID] = generateMilkBatchHash(_rawMilkID, _farmerID, _batchNumber, _quantity, _temperature);\n\n        emit MilkBatchCreated(_rawMilkID, _farmerID, _batchNumber, _quantity, _temperature, block.timestamp);\n    }\n\n    function generateMilkBatchHash(\n        string memory _rawMilkID,\n        string memory _farmerID,\n        string memory _batchNumber,\n        uint256 _quantity,\n        uint256 _temperature\n    ) public pure returns (bytes32) {\n        return keccak256(abi.encodePacked(_rawMilkID, _farmerID, _batchNumber, _quantity, _temperature));\n    }\n}\n",
  "sourcePath": "/home/apiwat/finalyearproject/Backend/solidity/contracts/RawMilk.sol",
  "compiler": {
    "name": "solc",
    "version": "0.8.20+commit.a1b79de6.Emscripten.clang"
  },
  "schemaVersion": "3.4.16",
  "updatedAt": "2025-02-10T11:14:16.115Z",
  "devdoc": {
    "errors": {
      "OwnableInvalidOwner(address)": [
        {
          "details": "The owner is not a valid owner account. (eg. `address(0)`)"
        }
      ],
      "OwnableUnauthorizedAccount(address)": [
        {
          "details": "The caller account is not authorized to perform an operation."
        }
      ]
    },
    "kind": "dev",
    "methods": {
      "owner()": {
        "details": "Returns the address of the current owner."
      },
      "renounceOwnership()": {
        "details": "Leaves the contract without owner. It will not be possible to call `onlyOwner` functions. Can only be called by the current owner. NOTE: Renouncing ownership will leave the contract without an owner, thereby disabling any functionality that is only available to the owner."
      },
      "transferOwnership(address)": {
        "details": "Transfers ownership of the contract to a new account (`newOwner`). Can only be called by the current owner."
      }
    },
    "version": 1
  },
  "userdoc": {
    "kind": "user",
    "methods": {},
    "version": 1
  }
}