{
  "contractName": "ShippingEvents",
  "abi": [
    {
      "inputs": [
        {
          "internalType": "address",
          "name": "initialOwner",
          "type": "address"
        }
      ],
      "stateMutability": "nonpayable",
      "type": "constructor"
    },
    {
      "inputs": [
        {
          "internalType": "address",
          "name": "owner",
          "type": "address"
        }
      ],
      "name": "OwnableInvalidOwner",
      "type": "error"
    },
    {
      "inputs": [
        {
          "internalType": "address",
          "name": "account",
          "type": "address"
        }
      ],
      "name": "OwnableUnauthorizedAccount",
      "type": "error"
    },
    {
      "anonymous": false,
      "inputs": [
        {
          "indexed": true,
          "internalType": "address",
          "name": "previousOwner",
          "type": "address"
        },
        {
          "indexed": true,
          "internalType": "address",
          "name": "newOwner",
          "type": "address"
        }
      ],
      "name": "OwnershipTransferred",
      "type": "event"
    },
    {
      "anonymous": false,
      "inputs": [
        {
          "indexed": false,
          "internalType": "string",
          "name": "shippingID",
          "type": "string"
        },
        {
          "indexed": false,
          "internalType": "string",
          "name": "productLotID",
          "type": "string"
        },
        {
          "indexed": false,
          "internalType": "string",
          "name": "fromLocation",
          "type": "string"
        },
        {
          "indexed": false,
          "internalType": "string",
          "name": "toLocation",
          "type": "string"
        },
        {
          "indexed": false,
          "internalType": "string",
          "name": "transporter",
          "type": "string"
        },
        {
          "indexed": false,
          "internalType": "uint256",
          "name": "timestamp",
          "type": "uint256"
        },
        {
          "indexed": false,
          "internalType": "uint256",
          "name": "temperature",
          "type": "uint256"
        },
        {
          "indexed": false,
          "internalType": "uint256",
          "name": "humidity",
          "type": "uint256"
        },
        {
          "indexed": false,
          "internalType": "bool",
          "name": "delivered",
          "type": "bool"
        },
        {
          "indexed": false,
          "internalType": "string",
          "name": "qualityInspectionCID",
          "type": "string"
        }
      ],
      "name": "ShippingEventCreated",
      "type": "event"
    },
    {
      "inputs": [],
      "name": "owner",
      "outputs": [
        {
          "internalType": "address",
          "name": "",
          "type": "address"
        }
      ],
      "stateMutability": "view",
      "type": "function"
    },
    {
      "inputs": [],
      "name": "renounceOwnership",
      "outputs": [],
      "stateMutability": "nonpayable",
      "type": "function"
    },
    {
      "inputs": [
        {
          "internalType": "string",
          "name": "",
          "type": "string"
        }
      ],
      "name": "shippingRecords",
      "outputs": [
        {
          "internalType": "string",
          "name": "shippingID",
          "type": "string"
        },
        {
          "internalType": "string",
          "name": "productLotID",
          "type": "string"
        },
        {
          "internalType": "string",
          "name": "fromLocation",
          "type": "string"
        },
        {
          "internalType": "string",
          "name": "toLocation",
          "type": "string"
        },
        {
          "internalType": "string",
          "name": "transporter",
          "type": "string"
        },
        {
          "internalType": "uint256",
          "name": "timestamp",
          "type": "uint256"
        },
        {
          "internalType": "uint256",
          "name": "temperature",
          "type": "uint256"
        },
        {
          "internalType": "uint256",
          "name": "humidity",
          "type": "uint256"
        },
        {
          "internalType": "bool",
          "name": "delivered",
          "type": "bool"
        },
        {
          "internalType": "string",
          "name": "qualityInspectionCID",
          "type": "string"
        }
      ],
      "stateMutability": "view",
      "type": "function"
    },
    {
      "inputs": [
        {
          "internalType": "address",
          "name": "newOwner",
          "type": "address"
        }
      ],
      "name": "transferOwnership",
      "outputs": [],
      "stateMutability": "nonpayable",
      "type": "function"
    },
    {
      "inputs": [
        {
          "internalType": "string",
          "name": "_shippingID",
          "type": "string"
        },
        {
          "internalType": "string",
          "name": "_productLotID",
          "type": "string"
        },
        {
          "internalType": "string",
          "name": "_fromLocation",
          "type": "string"
        },
        {
          "internalType": "string",
          "name": "_toLocation",
          "type": "string"
        },
        {
          "internalType": "string",
          "name": "_transporter",
          "type": "string"
        },
        {
          "internalType": "uint256",
          "name": "_temperature",
          "type": "uint256"
        },
        {
          "internalType": "uint256",
          "name": "_humidity",
          "type": "uint256"
        },
        {
          "internalType": "string",
          "name": "_qualityInspectionCID",
          "type": "string"
        }
      ],
      "name": "addShippingEvent",
      "outputs": [],
      "stateMutability": "nonpayable",
      "type": "function"
    }
  ],
  "bytecode": "0x608060405234801561000f575f80fd5b50604051610c89380380610c8983398101604081905261002e916100bb565b806001600160a01b03811661005c57604051631e4fbdf760e01b81525f600482015260240160405180910390fd5b6100658161006c565b50506100e8565b5f80546001600160a01b038381166001600160a01b0319831681178455604051919092169283917f8be0079c531659141344cd1fd0a4f28419497f9722a3daafe3b4186f6b6457e09190a35050565b5f602082840312156100cb575f80fd5b81516001600160a01b03811681146100e1575f80fd5b9392505050565b610b94806100f55f395ff3fe608060405234801561000f575f80fd5b5060043610610055575f3560e01c80630485b1a01461005957806345819a861461006e578063715018a6146100a05780638da5cb5b146100a8578063f2fde38b146100c2575b5f80fd5b61006c6100673660046107aa565b6100d5565b005b61008161007c3660046108a9565b6102bf565b6040516100979a99989796959493929190610930565b60405180910390f35b61006c610642565b5f546040516001600160a01b039091168152602001610097565b61006c6100d03660046109d4565b610655565b6100dd610692565b6001886040516100ed9190610a01565b9081526020016040518091039020600501545f146101525760405162461bcd60e51b815260206004820152601d60248201527f5368697070696e67206576656e7420616c72656164792065786973747300000060448201526064015b60405180910390fd5b6040518061014001604052808981526020018881526020018781526020018681526020018581526020014281526020018481526020018381526020015f15158152602001828152506001896040516101aa9190610a01565b908152604051908190036020019020815181906101c79082610aa2565b50602082015160018201906101dc9082610aa2565b50604082015160028201906101f19082610aa2565b50606082015160038201906102069082610aa2565b506080820151600482019061021b9082610aa2565b5060a0820151600582015560c0820151600682015560e0820151600782015561010082015160088201805460ff191691151591909117905561012082015160098201906102689082610aa2565b509050507f1a7096100107e79a589aa41881917c81189ebb44081e4c2e9c298767c80fb51c88888888884289895f8a6040516102ad9a99989796959493929190610930565b60405180910390a15050505050505050565b80516020818301810180516001825292820191909301209152805481906102e590610a1c565b80601f016020809104026020016040519081016040528092919081815260200182805461031190610a1c565b801561035c5780601f106103335761010080835404028352916020019161035c565b820191905f5260205f20905b81548152906001019060200180831161033f57829003601f168201915b50505050509080600101805461037190610a1c565b80601f016020809104026020016040519081016040528092919081815260200182805461039d90610a1c565b80156103e85780601f106103bf576101008083540402835291602001916103e8565b820191905f5260205f20905b8154815290600101906020018083116103cb57829003601f168201915b5050505050908060020180546103fd90610a1c565b80601f016020809104026020016040519081016040528092919081815260200182805461042990610a1c565b80156104745780601f1061044b57610100808354040283529160200191610474565b820191905f5260205f20905b81548152906001019060200180831161045757829003601f168201915b50505050509080600301805461048990610a1c565b80601f01602080910402602001604051908101604052809291908181526020018280546104b590610a1c565b80156105005780601f106104d757610100808354040283529160200191610500565b820191905f5260205f20905b8154815290600101906020018083116104e357829003601f168201915b50505050509080600401805461051590610a1c565b80601f016020809104026020016040519081016040528092919081815260200182805461054190610a1c565b801561058c5780601f106105635761010080835404028352916020019161058c565b820191905f5260205f20905b81548152906001019060200180831161056f57829003601f168201915b50505060058401546006850154600786015460088701546009880180549798949793965091945060ff1692916105c190610a1c565b80601f01602080910402602001604051908101604052809291908181526020018280546105ed90610a1c565b80156106385780601f1061060f57610100808354040283529160200191610638565b820191905f5260205f20905b81548152906001019060200180831161061b57829003601f168201915b505050505090508a565b61064a610692565b6106535f6106be565b565b61065d610692565b6001600160a01b03811661068657604051631e4fbdf760e01b81525f6004820152602401610149565b61068f816106be565b50565b5f546001600160a01b031633146106535760405163118cdaa760e01b8152336004820152602401610149565b5f80546001600160a01b038381166001600160a01b0319831681178455604051919092169283917f8be0079c531659141344cd1fd0a4f28419497f9722a3daafe3b4186f6b6457e09190a35050565b634e487b7160e01b5f52604160045260245ffd5b5f82601f830112610730575f80fd5b813567ffffffffffffffff8082111561074b5761074b61070d565b604051601f8301601f19908116603f011681019082821181831017156107735761077361070d565b8160405283815286602085880101111561078b575f80fd5b836020870160208301375f602085830101528094505050505092915050565b5f805f805f805f80610100898b0312156107c2575f80fd5b883567ffffffffffffffff808211156107d9575f80fd5b6107e58c838d01610721565b995060208b01359150808211156107fa575f80fd5b6108068c838d01610721565b985060408b013591508082111561081b575f80fd5b6108278c838d01610721565b975060608b013591508082111561083c575f80fd5b6108488c838d01610721565b965060808b013591508082111561085d575f80fd5b6108698c838d01610721565b955060a08b0135945060c08b0135935060e08b013591508082111561088c575f80fd5b506108998b828c01610721565b9150509295985092959890939650565b5f602082840312156108b9575f80fd5b813567ffffffffffffffff8111156108cf575f80fd5b6108db84828501610721565b949350505050565b5f5b838110156108fd5781810151838201526020016108e5565b50505f910152565b5f815180845261091c8160208601602086016108e3565b601f01601f19169290920160200192915050565b5f6101408083526109438184018e610905565b90508281036020840152610957818d610905565b9050828103604084015261096b818c610905565b9050828103606084015261097f818b610905565b90508281036080840152610993818a610905565b90508760a08401528660c08401528560e08401528415156101008401528281036101208401526109c38185610905565b9d9c50505050505050505050505050565b5f602082840312156109e4575f80fd5b81356001600160a01b03811681146109fa575f80fd5b9392505050565b5f8251610a128184602087016108e3565b9190910192915050565b600181811c90821680610a3057607f821691505b602082108103610a4e57634e487b7160e01b5f52602260045260245ffd5b50919050565b601f821115610a9d575f81815260208120601f850160051c81016020861015610a7a5750805b601f850160051c820191505b81811015610a9957828155600101610a86565b5050505b505050565b815167ffffffffffffffff811115610abc57610abc61070d565b610ad081610aca8454610a1c565b84610a54565b602080601f831160018114610b03575f8415610aec5750858301515b5f19600386901b1c1916600185901b178555610a99565b5f85815260208120601f198616915b82811015610b3157888601518255948401946001909101908401610b12565b5085821015610b4e57878501515f19600388901b60f8161c191681555b5050505050600190811b0190555056fea2646970667358221220e1aaa8b367ad2e637b7d2d3b251c0eb5bf8b6ae78c4d9604091be5015f00bc8a64736f6c63430008140033",
  "immutableReferences": {},
  "source": "// SPDX-License-Identifier: MIT\npragma solidity ^0.8.20;\n\nimport \"@openzeppelin/contracts/access/Ownable.sol\";\n\ncontract ShippingEvents is Ownable {\n    constructor(address initialOwner) Ownable(initialOwner) {}\n\n    struct ShippingEvent {\n        string shippingID;\n        string productLotID;\n        string fromLocation;\n        string toLocation;\n        string transporter;\n        uint256 timestamp;\n        uint256 temperature;\n        uint256 humidity;\n        bool delivered;\n        string qualityInspectionCID;\n    }\n\n    mapping(string => ShippingEvent) public shippingRecords;\n    event ShippingEventCreated(\n        string shippingID,\n        string productLotID,\n        string fromLocation,\n        string toLocation,\n        string transporter,\n        uint256 timestamp,\n        uint256 temperature,\n        uint256 humidity,\n        bool delivered,\n        string qualityInspectionCID\n    );\n\n    function addShippingEvent(\n        string memory _shippingID,\n        string memory _productLotID,\n        string memory _fromLocation,\n        string memory _toLocation,\n        string memory _transporter,\n        uint256 _temperature,\n        uint256 _humidity,\n        string memory _qualityInspectionCID\n    ) public onlyOwner {\n        require(shippingRecords[_shippingID].timestamp == 0, \"Shipping event already exists\");\n\n        shippingRecords[_shippingID] = ShippingEvent({\n            shippingID: _shippingID,\n            productLotID: _productLotID,\n            fromLocation: _fromLocation,\n            toLocation: _toLocation,\n            transporter: _transporter,\n            timestamp: block.timestamp,\n            temperature: _temperature,\n            humidity: _humidity,\n            delivered: false,\n            qualityInspectionCID: _qualityInspectionCID\n        });\n\n        emit ShippingEventCreated(_shippingID, _productLotID, _fromLocation, _toLocation, _transporter, block.timestamp, _temperature, _humidity, false, _qualityInspectionCID);\n    }\n}",
  "sourcePath": "/home/apiwat/finalyearproject/Backend/solidity/contracts/ShippingEvents.sol",
  "compiler": {
    "name": "solc",
    "version": "0.8.20+commit.a1b79de6.Emscripten.clang"
  },
  "schemaVersion": "3.4.16",
  "updatedAt": "2025-02-10T11:14:16.117Z",
  "devdoc": {
    "errors": {
      "OwnableInvalidOwner(address)": [
        {
          "details": "The owner is not a valid owner account. (eg. `address(0)`)"
        }
      ],
      "OwnableUnauthorizedAccount(address)": [
        {
          "details": "The caller account is not authorized to perform an operation."
        }
      ]
    },
    "kind": "dev",
    "methods": {
      "owner()": {
        "details": "Returns the address of the current owner."
      },
      "renounceOwnership()": {
        "details": "Leaves the contract without owner. It will not be possible to call `onlyOwner` functions. Can only be called by the current owner. NOTE: Renouncing ownership will leave the contract without an owner, thereby disabling any functionality that is only available to the owner."
      },
      "transferOwnership(address)": {
        "details": "Transfers ownership of the contract to a new account (`newOwner`). Can only be called by the current owner."
      }
    },
    "version": 1
  },
  "userdoc": {
    "kind": "user",
    "methods": {},
    "version": 1
  }
}